{
  "contractName": "LeaseProperty",
  "abi": [
    {
      "constant": true,
      "inputs": [
        {
          "name": "",
          "type": "uint256"
        }
      ],
      "name": "lessees",
      "outputs": [
        {
          "name": "",
          "type": "address"
        }
      ],
      "payable": false,
      "stateMutability": "view",
      "type": "function",
      "signature": "0x3defea20"
    },
    {
      "constant": false,
      "inputs": [
        {
          "name": "propertyId",
          "type": "uint256"
        }
      ],
      "name": "lease",
      "outputs": [
        {
          "name": "",
          "type": "uint256"
        }
      ],
      "payable": false,
      "stateMutability": "nonpayable",
      "type": "function",
      "signature": "0x2e352497"
    },
    {
      "constant": true,
      "inputs": [],
      "name": "getLessees",
      "outputs": [
        {
          "name": "",
          "type": "address[16]"
        }
      ],
      "payable": false,
      "stateMutability": "view",
      "type": "function",
      "signature": "0x014285f3"
    }
  ],
  "bytecode": "0x608060405234801561001057600080fd5b506102f4806100206000396000f3fe608060405260043610610057576000357c0100000000000000000000000000000000000000000000000000000000900463ffffffff168063014285f31461005c5780632e352497146100af5780633defea20146100fe575b600080fd5b34801561006857600080fd5b50610071610179565b6040518082601060200280838360005b8381101561009c578082015181840152602081019050610081565b5050505090500191505060405180910390f35b3480156100bb57600080fd5b506100e8600480360360208110156100d257600080fd5b81019080803590602001909291905050506101fa565b6040518082815260200191505060405180910390f35b34801561010a57600080fd5b506101376004803603602081101561012157600080fd5b810190808035906020019092919050505061026f565b604051808273ffffffffffffffffffffffffffffffffffffffff1673ffffffffffffffffffffffffffffffffffffffff16815260200191505060405180910390f35b6101816102a4565b60006010806020026040519081016040528092919082601080156101f0576020028201915b8160009054906101000a900473ffffffffffffffffffffffffffffffffffffffff1673ffffffffffffffffffffffffffffffffffffffff16815260200190600101908083116101a6575b5050505050905090565b600080821015801561020d5750600f8211155b151561021857600080fd5b3360008360108110151561022857fe5b0160006101000a81548173ffffffffffffffffffffffffffffffffffffffff021916908373ffffffffffffffffffffffffffffffffffffffff160217905550819050919050565b60008160108110151561027e57fe5b016000915054906101000a900473ffffffffffffffffffffffffffffffffffffffff1681565b6102006040519081016040528060109060208202803883398082019150509050509056fea165627a7a723058208a79a30e6ac1c6e1e224c8aaab617e5e09296ef7644bde9e55a99c69864c22190029",
  "source": "pragma solidity ^0.5.0;\n\ncontract LeaseProperty {\n\n    address[16] public lessees;\n\n    // Lease a property\n    function lease(uint propertyId) public returns (uint) {\n        require(propertyId >= 0 && propertyId <= 15);\n        lessees[propertyId] = msg.sender;\n        return propertyId;\n    }\n\n    // Retrieving the lessees\n    function getLessees() public view returns (address[16] memory) {\n        return lessees;\n    }\n}\n",
  "sourcePath": "/Users/cheongu/Documents/dev/house-rental/contracts/LeaseProperty.sol",
  "compiler": {
    "name": "solc",
    "version": "0.5.0+commit.1d4f565a.Emscripten.clang"
  },
  "schemaVersion": "3.0.2",
  "updatedAt": "2019-02-26T23:20:58.735Z",
  "devdoc": {
    "methods": {}
  },
  "userdoc": {
    "methods": {}
  }
}